:10000000031E080086015F308C000D3084008001E3
:10001000840A8C0B07282C282120840007398406A9
:100020000310840C840C840C041A841704128A01B3
:10003000820701340234043408341034203440344C
:10004000803407398A018207303431343234333412
:1000500034343534363437345D300D232630860061
:10006000E421130811230030EE22031D3828172144
:10007000CC309300FE2144309300FE210130A300D8
:10008000F4308322E421CC309300FE21BE30930073
:10009000FE21132213089400132213089500132243
:1000A000132213221322132213089F001322130872
:1000B0009E00BD20E42133309300FE21132213085B
:1000C000940013221308950013221308960013229C
:1000D000130897001322130898001322130899009D
:1000E000132213089A00132213089B008D20150871
:1000F00094008D20160894008D20170894008D2000
:10010000180894008D20190894008D201A08940076
:100110008D201B0894008D2030288E011408112397
:10012000F030C722220893001308112310309D22BB
:1001300022089300130811230930F822031DA62872
:10014000130811230730D222220893001308112329
:100150003030D22222088C0041210E0811230130B8
:10016000F322031DBC2801308E00140811230F3028
:10017000C722220893009A28362B14081123023034
:100180009D2222089400140811236430B4221A30EE
:100190001B231A3014231930CE221A301B231E08B9
:1001A00011231F08CE221C301B231C301423643063
:1001B000B4221C301B231C3014231E089D221C302B
:1001C0001B231A3014231C302223D4221A301B2361
:1001D0003730292311230130F322031D06291A3059
:1001E00014230930B4221C301B231C301423053087
:1001F0009D221C301B231C3014230C30A5008030A2
:10020000D3221C301B2346308F000C291B089D0075
:100210001A089C0043308F000D308C0041210A30B9
:100220008C00412148210F088C004121362B8F0181
:1002300001308A000F08F13E031832290F3E2221B7
:100240008C0032298207443453343A3420344E34FB
:100250006F34203452346534733470346F346E34F8
:100260007334653441210F081123E22222088F00E4
:100270000030FD22031D40290E30EE2203191829FB
:100280003022023031230230A8000C083322362BF2
:100290001C3014232730A50010309E2222088C0029
:1002A0000C0811233030D22222088C0041211C304E
:1002B00014232730A5001030992218301B23183042
:1002C00014230330A500E8309E2222088C000C087D
:1002D00011233030D22222088C0041211C301423FB
:1002E0000330A500E830992218301B23183014235E
:1002F00064309D2222088C000C0811233030D22259
:1003000022088C0041212E308C0041211C30142306
:100310006430982218301B23183014230A309D2291
:1003200022088C000C0811233030D22222088C00C5
:1003300041211C3014230A30982222088C000C081A
:1003400011233030D22222088C004121362B8630F6
:1003500084008610801013302C228014362B8612D5
:10036000861213302C228616362B86308400861097
:10037000801002302C22801410302C22362B861252
:10038000861202302C22861610302C22362B863014
:1003900084008610801093010000801402302C220B
:1003A0000608AD00AD18930A0F302C22362B8612AA
:1003B00086129301861602302C220608AD00AD1A73
:1003C000930A0F302C22362B863084008610801042
:1003D000A6302C22801413302C229301861C9314F7
:1003E000A6302C22362B86128612A6302C22861698
:1003F00013302C229301861E9316362B831208305D
:10040000AC00131CA7211318B521930CAC0B012AC7
:10041000362B0830AC00131CAF211318BF21930CEE
:10042000AC0B0B2A362B83120830AC00AB0CC72167
:10043000AB17131CAB13AC0B162A2B089300362BEF
:100440000830AC00AB0CD721AB17131CAB13AC0BB3
:10045000222A2B089300362BAE00AE0B2D2A080063
:1004600007309022302A6400AB000930AA00031044
:1004700040226522AB0CAA0B382A03144022652ABD
:1004800003082819013A8300A819542A00002708F4
:1004900084002608031C0001000626058006841738
:1004A0002608FF3A80050800270884002608FF3A3E
:1004B000800584172608031C000100062605800617
:1004C000080028176A2A0330662A0130FF3E031D00
:1004D000662A281302308A00280D06398207083060
:1004E000772A1030772A0230772A4030772AA900FD
:1004F000281BA90C802A0C30FF3E031D7C2A00001B
:10050000A90B7B2A0800A200E02264002308220431
:1005100003190800F730FF3E031D8B2AE222852ACB
:1005200083160739F83881006300FF308100362BCD
:10053000A501A4009F222930142BA501A40010308E
:10054000AB00AA01A9010314A20DA30DA90DAA0DC8
:10055000E6222930D522031C2210E6222930221C53
:10056000D522AB0BA32A362BA501A40029301B23CF
:10057000A301A2012A0829040319362B0310AA0C8F
:10058000A90C0318D4220310A40DA50DBA2AA501A5
:10059000A4002408A2052508A305362BA501A40064
:1005A000E622D42AA501A400223084002408800772
:1005B0002508840F00000318013E031C8007362B1A
:1005C000A309A209A20A0319A30A0800EB22A40A9C
:1005D0000319A50A362BA509A409362BA501A400E9
:1005E00002230139362BA501A40002230239362B40
:1005F000A501A40002230639362BA501A40002237D
:100600000439362B25082302031D0A2B2408220255
:1006100003190234031C04340134FF3A83168600A4
:10062000362BA301A200362B84000008A200840A06
:100630000008A300362B840022088000840A2308C7
:100640008000362B84000008A400840A0008A5005E
:10065000362B0D20A9000005841B29060319003440
:10066000013421200D20A6000408A7008312640095
:02067000080080
:084000007F007F007F007F00BC
:04400E00F53F010079
:00000001FF
