:020000040000FA
:10000000000000308A000D2805288C00030E8D00AA
:100010000D0E83008C0E0C0E090083160130860035
:100020001D30850006118614831286108901CC20AC
:1000300096181D2858307A2031283D2032309520DE
:100040000D307A200A307A20CC20093084006B20D1
:100050005C204420332020300902031D2028890120
:10006000172863003128133084006B20143084007B
:100070006B20153084006B20A728CC309600DB2045
:1000800044309600DB20A728BE309600DB20E62017
:1000900016089300E62016089000E620E620E620E9
:1000A000E620E62016089400E620160895000314C2
:1000B000101C0310930CA7280830910055309600AF
:1000C000DB2088308400001408089600DB20890AB1
:1000D000910B6128A7289101800E093090000F3004
:1000E00000059002031C073E303E7A201118A72815
:1000F000910A6C2892010611000000000000000027
:1001000000009000A22010188B280611900C920A73
:10011000921D822890280615900C920A921D822822
:10012000A2200615A220A220A7288F000C30900044
:10013000FF30A320900B9828EE306400A3208F0B93
:100140009628A72840308E008E0BA4280800831222
:100150006400080086308400861080101330A320CD
:100160008014A72886308400861080100230A320D7
:1001700080141030A320A7288630840086108010B9
:100180009601000080140230A32006088F008F180B
:10019000960A0F30A320A72886308400861080108E
:1001A000A630A32080141330A3209601861C961439
:1001B000A630A320A728831208309200161CAA207C
:1001C0001618B220960C920BDE28A728831208304E
:1001D0009200970CBC209717161C9713920BE928D6
:0601E00017089600A72895
:02400E00F63F7B
:1042000010009C0005004D00000000000000980018
:1042100010009D0052004D000000000000006B00E7
:104220001000A1000B004D000000000000009D00E8
:104230001000F90045004D0000000000000059008A
:00000001FF
